{
  "_format": "hh-sol-artifact-1",
  "contractName": "AdBid",
  "sourceName": "contracts/AdBid.sol",
  "abi": [
    {
      "inputs": [],
      "stateMutability": "nonpayable",
      "type": "constructor"
    },
    {
      "inputs": [],
      "name": "bid",
      "outputs": [],
      "stateMutability": "payable",
      "type": "function"
    },
    {
      "inputs": [],
      "name": "getCid",
      "outputs": [
        {
          "internalType": "string",
          "name": "",
          "type": "string"
        }
      ],
      "stateMutability": "view",
      "type": "function"
    },
    {
      "inputs": [],
      "name": "owner",
      "outputs": [
        {
          "internalType": "address",
          "name": "",
          "type": "address"
        }
      ],
      "stateMutability": "view",
      "type": "function"
    },
    {
      "inputs": [],
      "name": "price",
      "outputs": [
        {
          "internalType": "uint256",
          "name": "",
          "type": "uint256"
        }
      ],
      "stateMutability": "view",
      "type": "function"
    },
    {
      "inputs": [
        {
          "internalType": "string",
          "name": "_newcid",
          "type": "string"
        }
      ],
      "name": "setCid",
      "outputs": [],
      "stateMutability": "nonpayable",
      "type": "function"
    },
    {
      "inputs": [],
      "name": "tempOwner",
      "outputs": [
        {
          "internalType": "address",
          "name": "",
          "type": "address"
        }
      ],
      "stateMutability": "view",
      "type": "function"
    }
  ],
  "bytecode": "0x608060405260405180602001604052806000815250600390805190602001906100299291906100f4565b5034801561003657600080fd5b50336000806101000a81548173ffffffffffffffffffffffffffffffffffffffff021916908373ffffffffffffffffffffffffffffffffffffffff16021790555033600260006101000a81548173ffffffffffffffffffffffffffffffffffffffff021916908373ffffffffffffffffffffffffffffffffffffffff1602179055506040518060600160405280602e815260200161099d602e9139600390805190602001906100e69291906100f4565b5060646001819055506101f8565b828054610100906101c6565b90600052602060002090601f0160209004810192826101225760008555610169565b82601f1061013b57805160ff1916838001178555610169565b82800160010185558215610169579182015b8281111561016857825182559160200191906001019061014d565b5b509050610176919061017a565b5090565b5b8082111561019357600081600090555060010161017b565b5090565b7f4e487b7100000000000000000000000000000000000000000000000000000000600052602260045260246000fd5b600060028204905060018216806101de57607f821691505b602082108114156101f2576101f1610197565b5b50919050565b610796806102076000396000f3fe6080604052600436106100555760003560e01c80631998aeef1461005a5780638da5cb5b14610064578063a035b1fe1461008f578063a2a12bfb146100ba578063b7e03bec146100e5578063ca00c7021461010e575b600080fd5b610062610139565b005b34801561007057600080fd5b506100796101a4565b60405161008691906103de565b60405180910390f35b34801561009b57600080fd5b506100a46101c8565b6040516100b19190610412565b60405180910390f35b3480156100c657600080fd5b506100cf6101ce565b6040516100dc91906103de565b60405180910390f35b3480156100f157600080fd5b5061010c60048036038101906101079190610587565b6101f4565b005b34801561011a57600080fd5b50610123610268565b6040516101309190610658565b60405180910390f35b6000349050606460015461014d91906106a9565b81101561015957600080fd5b8060018190555033600260006101000a81548173ffffffffffffffffffffffffffffffffffffffff021916908373ffffffffffffffffffffffffffffffffffffffff16021790555050565b60008054906101000a900473ffffffffffffffffffffffffffffffffffffffff1681565b60015481565b600260009054906101000a900473ffffffffffffffffffffffffffffffffffffffff1681565b600260009054906101000a900473ffffffffffffffffffffffffffffffffffffffff1673ffffffffffffffffffffffffffffffffffffffff163373ffffffffffffffffffffffffffffffffffffffff161461024e57600080fd5b80600390805190602001906102649291906102fa565b5050565b6060600380546102779061072e565b80601f01602080910402602001604051908101604052809291908181526020018280546102a39061072e565b80156102f05780601f106102c5576101008083540402835291602001916102f0565b820191906000526020600020905b8154815290600101906020018083116102d357829003601f168201915b5050505050905090565b8280546103069061072e565b90600052602060002090601f016020900481019282610328576000855561036f565b82601f1061034157805160ff191683800117855561036f565b8280016001018555821561036f579182015b8281111561036e578251825591602001919060010190610353565b5b50905061037c9190610380565b5090565b5b80821115610399576000816000905550600101610381565b5090565b600073ffffffffffffffffffffffffffffffffffffffff82169050919050565b60006103c88261039d565b9050919050565b6103d8816103bd565b82525050565b60006020820190506103f360008301846103cf565b92915050565b6000819050919050565b61040c816103f9565b82525050565b60006020820190506104276000830184610403565b92915050565b6000604051905090565b600080fd5b600080fd5b600080fd5b600080fd5b6000601f19601f8301169050919050565b7f4e487b7100000000000000000000000000000000000000000000000000000000600052604160045260246000fd5b6104948261044b565b810181811067ffffffffffffffff821117156104b3576104b261045c565b5b80604052505050565b60006104c661042d565b90506104d2828261048b565b919050565b600067ffffffffffffffff8211156104f2576104f161045c565b5b6104fb8261044b565b9050602081019050919050565b82818337600083830152505050565b600061052a610525846104d7565b6104bc565b90508281526020810184848401111561054657610545610446565b5b610551848285610508565b509392505050565b600082601f83011261056e5761056d610441565b5b813561057e848260208601610517565b91505092915050565b60006020828403121561059d5761059c610437565b5b600082013567ffffffffffffffff8111156105bb576105ba61043c565b5b6105c784828501610559565b91505092915050565b600081519050919050565b600082825260208201905092915050565b60005b8381101561060a5780820151818401526020810190506105ef565b83811115610619576000848401525b50505050565b600061062a826105d0565b61063481856105db565b93506106448185602086016105ec565b61064d8161044b565b840191505092915050565b60006020820190508181036000830152610672818461061f565b905092915050565b7f4e487b7100000000000000000000000000000000000000000000000000000000600052601160045260246000fd5b60006106b4826103f9565b91506106bf836103f9565b9250827fffffffffffffffffffffffffffffffffffffffffffffffffffffffffffffffff038211156106f4576106f361067a565b5b828201905092915050565b7f4e487b7100000000000000000000000000000000000000000000000000000000600052602260045260246000fd5b6000600282049050600182168061074657607f821691505b6020821081141561075a576107596106ff565b5b5091905056fea2646970667358221220bcbd0efa1ce692e5068d06238ba24dd52a1a6a1bfdc3f6c33fb52946fb93916c64736f6c63430008090033516d4e5664314573656b655848546f4c7562444e6a524c75594261475644574351333270377667503642624a4c44",
  "linkReferences": {},
  "deployedLinkReferences": {}
}